{
  "contractName": "Lecture13",
  "abi": [
    {
      "anonymous": false,
      "inputs": [
        {
          "indexed": false,
          "internalType": "uint256",
          "name": "num",
          "type": "uint256"
        },
        {
          "indexed": false,
          "internalType": "string",
          "name": "str",
          "type": "string"
        }
      ],
      "name": "numberTracker",
      "type": "event"
    },
    {
      "anonymous": false,
      "inputs": [
        {
          "indexed": true,
          "internalType": "uint256",
          "name": "num",
          "type": "uint256"
        },
        {
          "indexed": false,
          "internalType": "string",
          "name": "str",
          "type": "string"
        }
      ],
      "name": "numberTracker2",
      "type": "event"
    },
    {
      "inputs": [
        {
          "internalType": "string",
          "name": "_str",
          "type": "string"
        }
      ],
      "name": "PushEvent",
      "outputs": [],
      "stateMutability": "nonpayable",
      "type": "function"
    }
  ],
  "bytecode": "0x60806040526000805534801561001457600080fd5b5061041f806100246000396000f3fe608060405234801561001057600080fd5b506004361061002b5760003560e01c8063017da4c114610030575b600080fd5b61004a6004803603810190610045919061014b565b61004c565b005b7f03eff96be556f3f2723cf37f74bbd4e1cc33a150b8d6c459da9382b55d66a4356000548260405161007f9291906101fe565b60405180910390a16000547ffb4ffcebb0192c9c8eb7d1a661004ce72a1f9ab354ed4d7d9711b7cc9b1ad361826040516100b991906101dc565b60405180910390a26000808154809291906100d39061031d565b919050555050565b60006100ee6100e984610253565b61022e565b90508281526020810184848401111561010a576101096103c9565b5b6101158482856102aa565b509392505050565b600082601f830112610132576101316103c4565b5b81356101428482602086016100db565b91505092915050565b600060208284031215610161576101606103d3565b5b600082013567ffffffffffffffff81111561017f5761017e6103ce565b5b61018b8482850161011d565b91505092915050565b600061019f82610284565b6101a9818561028f565b93506101b98185602086016102b9565b6101c2816103d8565b840191505092915050565b6101d6816102a0565b82525050565b600060208201905081810360008301526101f68184610194565b905092915050565b600060408201905061021360008301856101cd565b81810360208301526102258184610194565b90509392505050565b6000610238610249565b905061024482826102ec565b919050565b6000604051905090565b600067ffffffffffffffff82111561026e5761026d610395565b5b610277826103d8565b9050602081019050919050565b600081519050919050565b600082825260208201905092915050565b6000819050919050565b82818337600083830152505050565b60005b838110156102d75780820151818401526020810190506102bc565b838111156102e6576000848401525b50505050565b6102f5826103d8565b810181811067ffffffffffffffff8211171561031457610313610395565b5b80604052505050565b6000610328826102a0565b91507fffffffffffffffffffffffffffffffffffffffffffffffffffffffffffffffff82141561035b5761035a610366565b5b600182019050919050565b7f4e487b7100000000000000000000000000000000000000000000000000000000600052601160045260246000fd5b7f4e487b7100000000000000000000000000000000000000000000000000000000600052604160045260246000fd5b600080fd5b600080fd5b600080fd5b600080fd5b6000601f19601f830116905091905056fea2646970667358221220035b8fa3642a3a004bde892895466bb04558c180ffa5abf4f1ee8f19aa3e258064736f6c63430008070033",
  "immutableReferences": {},
  "source": "// SPDX-License-Identifier: MIT\r\n\r\npragma solidity >=0.8.0 <0.9.0;\r\n\r\ncontract Lecture13  {\r\n    event numberTracker(uint256 num, string str);\r\n    event numberTracker2(uint256 indexed num, string str);\r\n\r\n    uint256 num =0;\r\n    function PushEvent(string memory _str) public {\r\n        emit numberTracker(num,_str);\r\n        emit numberTracker2(num,_str);\r\n        num ++;\r\n    }\r\n}\r\n",
  "sourcePath": "D:\\\\events2\\contracts\\Lecture14.sol",
  "compiler": {
    "name": "solc",
    "version": "0.8.7+commit.e28d00a7.Emscripten.clang"
  },
  "schemaVersion": "3.4.3",
  "updatedAt": "2021-09-11T10:58:28.219Z",
  "networkType": "ethereum",
  "devdoc": {
    "kind": "dev",
    "methods": {},
    "version": 1
  },
  "userdoc": {
    "kind": "user",
    "methods": {},
    "version": 1
  }
}